{
  "contractName": "Indian",
  "abi": [
    {
      "constant": false,
      "inputs": [],
      "name": "buyGame",
      "outputs": [],
      "payable": true,
      "stateMutability": "payable",
      "type": "function"
    },
    {
      "constant": true,
      "inputs": [],
      "name": "getMyGame",
      "outputs": [
        {
          "name": "",
          "type": "uint16"
        }
      ],
      "payable": false,
      "stateMutability": "view",
      "type": "function"
    },
    {
      "constant": false,
      "inputs": [
        {
          "name": "_gamePrice",
          "type": "uint256"
        }
      ],
      "name": "sellMyGame",
      "outputs": [],
      "payable": true,
      "stateMutability": "payable",
      "type": "function"
    },
    {
      "constant": false,
      "inputs": [],
      "name": "investGame",
      "outputs": [],
      "payable": true,
      "stateMutability": "payable",
      "type": "function"
    }
  ],
  "bytecode": "0x608060405234801561001057600080fd5b50610330806100206000396000f300608060405260043610610062576000357c0100000000000000000000000000000000000000000000000000000000900463ffffffff16806302056c8b1461006757806349cd2abf1461009a5780639ef2cece146100a4578063efa43c22146100c4575b600080fd5b34801561007357600080fd5b5061007c6100ce565b604051808261ffff1661ffff16815260200191505060405180910390f35b6100a2610122565b005b6100c260048036038101908080359060200190929190505050610195565b005b6100cc610291565b005b60008060003373ffffffffffffffffffffffffffffffffffffffff1673ffffffffffffffffffffffffffffffffffffffff16815260200190815260200160002060009054906101000a900461ffff16905090565b6000803373ffffffffffffffffffffffffffffffffffffffff1673ffffffffffffffffffffffffffffffffffffffff168152602001908152602001600020600081819054906101000a900461ffff168092919060010191906101000a81548161ffff021916908361ffff16021790555050565b6000816000803373ffffffffffffffffffffffffffffffffffffffff1673ffffffffffffffffffffffffffffffffffffffff16815260200190815260200160002060009054906101000a900461ffff1661ffff1602905060008060003373ffffffffffffffffffffffffffffffffffffffff1673ffffffffffffffffffffffffffffffffffffffff16815260200190815260200160002060006101000a81548161ffff021916908361ffff1602179055503373ffffffffffffffffffffffffffffffffffffffff166108fc829081150290604051600060405180830381858888f1935050505015801561028c573d6000803e3d6000fd5b505050565b6000803373ffffffffffffffffffffffffffffffffffffffff1673ffffffffffffffffffffffffffffffffffffffff168152602001908152602001600020600081819054906101000a900461ffff168092919060010191906101000a81548161ffff021916908361ffff160217905550505600a165627a7a72305820105d929cae5206cd64d267457579fba759fe08074e1d0545ddeb4b40fb3834d20029",
  "source": "pragma solidity >=0.4.24 <=0.5.6;\n\ncontract Indian {\n    mapping (address => uint16) myGame;\n\n    function buyGame() payable external {\n        myGame[msg.sender]++;\n    }\n\n    function getMyGame() view external returns(uint16) {\n        return myGame[msg.sender];\n    }\n\n    function sellMyGame(uint _gamePrice) payable external {\n        uint refund = (myGame[msg.sender] * _gamePrice);\n        myGame[msg.sender] = 0;\n        msg.sender.transfer(refund);\n    }\n    function investGame() payable external {\n        myGame[msg.sender]++;\n    }\n}",
  "sourcePath": "/Users/song-incheol/Indian/contracts/Indian.sol",
  "compiler": {
    "name": "solc",
    "version": "0.4.25+commit.59dbf8f1.Emscripten.clang"
  },
  "schemaVersion": "2.0.2",
  "updatedAt": "2020-09-17T11:47:04.225Z"
}