{
  "contractName": "Indian",
  "abi": [
    {
      "constant": true,
      "inputs": [],
      "name": "owner",
      "outputs": [
        {
          "name": "",
          "type": "address"
        }
      ],
      "payable": false,
      "stateMutability": "view",
      "type": "function"
    },
    {
      "inputs": [],
      "payable": false,
      "stateMutability": "nonpayable",
      "type": "constructor"
    },
    {
      "constant": true,
      "inputs": [],
      "name": "getBalance",
      "outputs": [
        {
          "name": "",
          "type": "uint256"
        }
      ],
      "payable": false,
      "stateMutability": "view",
      "type": "function"
    },
    {
      "constant": false,
      "inputs": [],
      "name": "deposit",
      "outputs": [],
      "payable": true,
      "stateMutability": "payable",
      "type": "function"
    },
    {
      "constant": false,
      "inputs": [
        {
          "name": "_gamePrice",
          "type": "uint256"
        }
      ],
      "name": "buyGame",
      "outputs": [],
      "payable": true,
      "stateMutability": "payable",
      "type": "function"
    },
    {
      "constant": true,
      "inputs": [],
      "name": "getMyGame",
      "outputs": [
        {
          "name": "",
          "type": "uint16"
        }
      ],
      "payable": false,
      "stateMutability": "view",
      "type": "function"
    },
    {
      "constant": false,
      "inputs": [
        {
          "name": "_gamePrice",
          "type": "uint256"
        }
      ],
      "name": "sellMyGame",
      "outputs": [],
      "payable": true,
      "stateMutability": "payable",
      "type": "function"
    },
    {
      "constant": false,
      "inputs": [],
      "name": "investGame",
      "outputs": [],
      "payable": true,
      "stateMutability": "payable",
      "type": "function"
    }
  ],
  "bytecode": "0x608060405234801561001057600080fd5b5033600160006101000a81548173ffffffffffffffffffffffffffffffffffffffff021916908373ffffffffffffffffffffffffffffffffffffffff1602179055506104de806100616000396000f300608060405260043610610083576000357c0100000000000000000000000000000000000000000000000000000000900463ffffffff16806302056c8b1461008857806312065fe0146100bb5780638da5cb5b146100e65780639ef2cece1461013d578063d0e30db01461015d578063efa43c2214610167578063f776051714610171575b600080fd5b34801561009457600080fd5b5061009d610191565b604051808261ffff1661ffff16815260200191505060405180910390f35b3480156100c757600080fd5b506100d06101e5565b6040518082815260200191505060405180910390f35b3480156100f257600080fd5b506100fb610204565b604051808273ffffffffffffffffffffffffffffffffffffffff1673ffffffffffffffffffffffffffffffffffffffff16815260200191505060405180910390f35b61015b6004803603810190808035906020019092919050505061022a565b005b610165610326565b005b61016f610384565b005b61018f600480360381019080803590602001909291905050506103f7565b005b60008060003373ffffffffffffffffffffffffffffffffffffffff1673ffffffffffffffffffffffffffffffffffffffff16815260200190815260200160002060009054906101000a900461ffff16905090565b60003073ffffffffffffffffffffffffffffffffffffffff1631905090565b600160009054906101000a900473ffffffffffffffffffffffffffffffffffffffff1681565b6000816000803373ffffffffffffffffffffffffffffffffffffffff1673ffffffffffffffffffffffffffffffffffffffff16815260200190815260200160002060009054906101000a900461ffff1661ffff1602905060008060003373ffffffffffffffffffffffffffffffffffffffff1673ffffffffffffffffffffffffffffffffffffffff16815260200190815260200160002060006101000a81548161ffff021916908361ffff1602179055503373ffffffffffffffffffffffffffffffffffffffff166108fc829081150290604051600060405180830381858888f19350505050158015610321573d6000803e3d6000fd5b505050565b600160009054906101000a900473ffffffffffffffffffffffffffffffffffffffff1673ffffffffffffffffffffffffffffffffffffffff163373ffffffffffffffffffffffffffffffffffffffff1614151561038257600080fd5b565b6000803373ffffffffffffffffffffffffffffffffffffffff1673ffffffffffffffffffffffffffffffffffffffff168152602001908152602001600020600081819054906101000a900461ffff168092919060010191906101000a81548161ffff021916908361ffff16021790555050565b3373ffffffffffffffffffffffffffffffffffffffff166108fc829081150290604051600060405180830381858888f1935050505015801561043d573d6000803e3d6000fd5b506000803373ffffffffffffffffffffffffffffffffffffffff1673ffffffffffffffffffffffffffffffffffffffff168152602001908152602001600020600081819054906101000a900461ffff168092919060010191906101000a81548161ffff021916908361ffff16021790555050505600a165627a7a72305820c4384f8a0c0e773f1baea604b8dededdbd074c23bf8d990d41db7ab2ca7884710029",
  "source": "pragma solidity >=0.4.24 <=0.5.6;\n\ncontract Indian {\n    mapping (address => uint16) myGame;\n    address public owner;\n\n    constructor() public {\n        owner = msg.sender;\n    }\n\n\n    function getBalance() public view returns (uint) {\n        return address(this).balance;\n    }\n\n    function deposit() payable external {\n        require(msg.sender == owner);\n    }\n\n    function buyGame(uint _gamePrice) payable external {\n        //require(getBalance() >= _gamePrice);\n        msg.sender.transfer(_gamePrice);\n        myGame[msg.sender]++;\n        //return true;\n    }\n\n    function getMyGame() view external returns(uint16) {\n        return myGame[msg.sender];\n    }\n\n    function sellMyGame(uint _gamePrice) payable external {\n        uint refund = (myGame[msg.sender] * _gamePrice);\n        myGame[msg.sender] = 0;\n        msg.sender.transfer(refund);\n    }\n    function investGame() payable external {\n        myGame[msg.sender]++;\n    }\n\n}",
  "sourcePath": "/Users/song-incheol/Indian/contracts/Indian.sol",
  "compiler": {
    "name": "solc",
    "version": "0.4.25+commit.59dbf8f1.Emscripten.clang"
  },
  "schemaVersion": "2.0.2",
  "updatedAt": "2020-09-19T05:21:42.174Z"
}