{
  "contractName": "Indian",
  "abi": [
    {
      "constant": true,
      "inputs": [],
      "name": "owner",
      "outputs": [
        {
          "name": "",
          "type": "address"
        }
      ],
      "payable": false,
      "stateMutability": "view",
      "type": "function"
    },
    {
      "constant": true,
      "inputs": [],
      "name": "receiver",
      "outputs": [
        {
          "name": "",
          "type": "address"
        }
      ],
      "payable": false,
      "stateMutability": "view",
      "type": "function"
    },
    {
      "inputs": [],
      "payable": false,
      "stateMutability": "nonpayable",
      "type": "constructor"
    },
    {
      "constant": true,
      "inputs": [],
      "name": "getBalance",
      "outputs": [
        {
          "name": "",
          "type": "uint256"
        }
      ],
      "payable": false,
      "stateMutability": "view",
      "type": "function"
    },
    {
      "constant": false,
      "inputs": [],
      "name": "deposit",
      "outputs": [],
      "payable": true,
      "stateMutability": "payable",
      "type": "function"
    },
    {
      "constant": false,
      "inputs": [],
      "name": "buyGame",
      "outputs": [],
      "payable": true,
      "stateMutability": "payable",
      "type": "function"
    },
    {
      "constant": true,
      "inputs": [],
      "name": "getMyGame",
      "outputs": [
        {
          "name": "",
          "type": "uint16"
        }
      ],
      "payable": false,
      "stateMutability": "view",
      "type": "function"
    },
    {
      "constant": false,
      "inputs": [
        {
          "name": "_gamePrice",
          "type": "uint256"
        }
      ],
      "name": "sellMyGame",
      "outputs": [],
      "payable": true,
      "stateMutability": "payable",
      "type": "function"
    },
    {
      "constant": false,
      "inputs": [],
      "name": "investGame",
      "outputs": [],
      "payable": true,
      "stateMutability": "payable",
      "type": "function"
    }
  ],
  "bytecode": "0x608060405234801561001057600080fd5b5033600160006101000a81548173ffffffffffffffffffffffffffffffffffffffff021916908373ffffffffffffffffffffffffffffffffffffffff160217905550610508806100616000396000f30060806040526004361061008e576000357c0100000000000000000000000000000000000000000000000000000000900463ffffffff16806302056c8b1461009357806312065fe0146100c657806349cd2abf146100f15780638da5cb5b146100fb5780639ef2cece14610152578063d0e30db014610172578063efa43c221461017c578063f7260d3e14610186575b600080fd5b34801561009f57600080fd5b506100a86101dd565b604051808261ffff1661ffff16815260200191505060405180910390f35b3480156100d257600080fd5b506100db610231565b6040518082815260200191505060405180910390f35b6100f9610250565b005b34801561010757600080fd5b506101106102c3565b604051808273ffffffffffffffffffffffffffffffffffffffff1673ffffffffffffffffffffffffffffffffffffffff16815260200191505060405180910390f35b610170600480360381019080803590602001909291905050506102e9565b005b61017a6103e5565b005b610184610443565b005b34801561019257600080fd5b5061019b6104b6565b604051808273ffffffffffffffffffffffffffffffffffffffff1673ffffffffffffffffffffffffffffffffffffffff16815260200191505060405180910390f35b60008060003373ffffffffffffffffffffffffffffffffffffffff1673ffffffffffffffffffffffffffffffffffffffff16815260200190815260200160002060009054906101000a900461ffff16905090565b60003073ffffffffffffffffffffffffffffffffffffffff1631905090565b6000803373ffffffffffffffffffffffffffffffffffffffff1673ffffffffffffffffffffffffffffffffffffffff168152602001908152602001600020600081819054906101000a900461ffff168092919060010191906101000a81548161ffff021916908361ffff16021790555050565b600160009054906101000a900473ffffffffffffffffffffffffffffffffffffffff1681565b6000816000803373ffffffffffffffffffffffffffffffffffffffff1673ffffffffffffffffffffffffffffffffffffffff16815260200190815260200160002060009054906101000a900461ffff1661ffff1602905060008060003373ffffffffffffffffffffffffffffffffffffffff1673ffffffffffffffffffffffffffffffffffffffff16815260200190815260200160002060006101000a81548161ffff021916908361ffff1602179055503373ffffffffffffffffffffffffffffffffffffffff166108fc829081150290604051600060405180830381858888f193505050501580156103e0573d6000803e3d6000fd5b505050565b600160009054906101000a900473ffffffffffffffffffffffffffffffffffffffff1673ffffffffffffffffffffffffffffffffffffffff163373ffffffffffffffffffffffffffffffffffffffff1614151561044157600080fd5b565b6000803373ffffffffffffffffffffffffffffffffffffffff1673ffffffffffffffffffffffffffffffffffffffff168152602001908152602001600020600081819054906101000a900461ffff168092919060010191906101000a81548161ffff021916908361ffff16021790555050565b600260009054906101000a900473ffffffffffffffffffffffffffffffffffffffff16815600a165627a7a72305820d47a233b0bfb56f39b40dbc59ff3f6e57af99dca752aec5de57e8d3caf02c09d0029",
  "source": "pragma solidity >=0.4.24 <=0.5.6;\n\ncontract Indian {\n    mapping (address => uint16) myGame;\n    address public owner;\n    address public receiver;\n\n    constructor() public {\n        owner = msg.sender;\n    }\n\n\n    function getBalance() public view returns (uint) {\n        return address(this).balance;\n    }\n\n    function deposit() payable external {\n        require(msg.sender == owner);\n    }\n\n    function buyGame() payable external {\n        //require(getBalance() >= _gamePrice);\n        //receiver = _receiver;\n        //msg.sender.transfer(_gamePrice);\n        myGame[msg.sender]++;\n        //return true;\n    }\n\n    function getMyGame() view external returns(uint16) {\n        return myGame[msg.sender];\n    }\n\n    function sellMyGame(uint _gamePrice) payable external {\n        uint refund = (myGame[msg.sender] * _gamePrice);\n        myGame[msg.sender] = 0;\n        msg.sender.transfer(refund);\n    }\n    function investGame() payable external {\n        myGame[msg.sender]++;\n    }\n\n}",
  "sourcePath": "/Users/song-incheol/Indian/contracts/Indian.sol",
  "compiler": {
    "name": "solc",
    "version": "0.4.25+commit.59dbf8f1.Emscripten.clang"
  },
  "schemaVersion": "2.0.2",
  "updatedAt": "2020-09-20T06:39:38.758Z"
}